:100000000C942A000C9434000C9434000C943400AA
:100010000C9434000C9434000C9434000C94340090
:100020000C9434000C9434000C9434000C94340080
:100030000C9434000C9434000C9434000C94340070
:100040000C9434000C9434000C9434000C94340060
:100050000C94340011241FBECFE5D4E0DEBFCDBF29
:100060000E94BE010C94C1010C940000482F4770FF
:100070008695869586958130B1F1813038F0823051
:1000800009F45EC0833009F0B2C086C0662361F413
:100090002AB381E090E002C0880F991F4A95E2F7E9
:1000A000809582238ABB0895613059F42AB381E098
:1000B00090E002C0880F991F4A95E2F7282B2ABBCF
:1000C0000895623009F093C03AB381E090E001C036
:1000D000880F4A95EAF7282F209523232ABB2BB3B4
:1000E000822B8BBB0895662361F427B381E090E0F7
:1000F00002C0880F991F4A95E2F78095822387BB3B
:100100000895613059F427B381E090E002C0880F70
:10011000991F4A95E2F7282B27BB0895623009F012
:1001200066C037B381E090E001C0880F4A95EAF7D6
:10013000282F2095232327BB28B3822B88BB089523
:10014000662361F424B381E090E002C0880F991F18
:100150004A95E2F78095822384BB0895613059F473
:1001600024B381E090E002C0880F991F4A95E2F71E
:10017000282B24BB08956230D1F534B381E090E0A0
:1001800001C0880F4A95EAF7282F2095232324BB26
:1001900025B3822B85BB0895662361F422B381E0E9
:1001A00090E002C0880F991F4A95E2F7809582235C
:1001B00082BB0895613059F422B381E090E002C01F
:1001C000880F991F4A95E2F7282B22BB08956230C9
:1001D00071F432B381E090E001C0880F4A95EAF7EC
:1001E000282F2095232322BB21B3822B81BB089586
:1001F000382F3770869586958695813029F1813024
:1002000038F0823009F43CC0833009F06EC053C02E
:10021000662361F42BB381E090E002C0880F991F40
:100220003A95E2F7809582238BBB0895613009F0FF
:100230005CC02BB381E090E002C0880F991F3A9513
:10024000E2F7282B2BBB0895662361F428B381E0E5
:1002500090E002C0880F991F3A95E2F780958223BB
:1002600088BB0895613009F040C028B381E090E078
:1002700002C0880F991F3A95E2F7282B28BB0895F2
:10028000662361F425B381E090E002C0880F991FD6
:100290003A95E2F78095822385BB0895613029F570
:1002A00025B381E090E002C0880F991F3A95E2F7EC
:1002B000282B25BB0895662361F421B381E090E0EB
:1002C00002C0880F991F3A95E2F78095822381BB7F
:1002D0000895613051F421B381E090E002C0880FAD
:1002E000991F3A95E2F7282B21BB0895382F3770D4
:1002F000869586958695813051F0813030F0823038
:1003000041F0833041F020E015C029B305C026B389
:1003100003C023B301C020B381E090E0032E02C0EC
:10032000880F991F0A94E2F702C0959587953A9530
:10033000E2F72823822F0895813049F0813028F098
:10034000823039F0833041F406C06ABB089567BB40
:10035000089564BB089562BB0895813049F08130EF
:1003600028F0823039F0833041F406C06BBB089529
:1003700068BB089565BB089561BB0895D09AD8986D
:06038000FECFF894FFCF50
:00000001FF
