:100000000C942A000C9447000C9447000C94470071
:100010000C9447000C9447000C9447000C94470044
:100020000C9447000C9447000C94B0010C944900C8
:100030000C9447000C9477000C9447000C944700F4
:100040000C9447000C9447000C9447000C94460114
:100050000C94470011241FBECFE5D4E0DEBFCDBF16
:1000600010E0A0E6B0E0E6E1FEE002C005900D92EF
:10007000AE37B107D9F711E0AEE7B0E001C01D928D
:10008000AA38B107E1F70E94B6060C9409070C9450
:1000900000001F920F920FB60F9211248F93EF93CF
:1000A000FF938CB18093840080918100813021F096
:1000B00080918400833281F0E091800080918400FF
:1000C000F0E0E657FF4F8083809180008F5F809340
:1000D00080001092810003C081E080937E00FF9138
:1000E000EF918F910F900FBE0F901F9018951F9258
:1000F0000F920FB60F9211248F939F93EF93FF935C
:1001000084ED90E30197F1F7909183008091820054
:10011000981769F0E0918300F0E0E65FFE4F808180
:100120008CB9809183008F5F809383000AC0E09137
:100130008300F0E0E65FFE4F108210928300109281
:100140008200FF91EF919F918F910F900FBE0F90C2
:100150001F901895FC015C985B98599A8FB780683E
:100160008FBF579A569A549A539A80B5806880BD2B
:1001700080B58F7B80BD90B580818295807F9F7C8C
:10018000892B80BD90B58181880F880F880F977F5C
:10019000892B80BD40B5228130E0C9018370907009
:1001A000880F991F497F482B40BD8AB12470307059
:1001B000220F331F220F331F8B7F822B8AB98CE0D3
:1001C00089B910BC089590918200EAE0F1E0E90F4E
:1001D000F11D8083809182008F5F8093820008955B
:1001E0009C0180917E00813009F511C080917F00D3
:1001F000E0917F00D901A80FB11DF0E0E657FF4F55
:1002000080818C9380917F008F5F80937F0090919D
:100210007F0080918000981748F381E080938100EF
:100220001092800010927F0010927E0008950F932C
:100230001F93CF93DF938C016AE071E00E94BB06AD
:100240000097F9F090E00FC0E0918200F0E0E65FE7
:10025000FE4FC00FD11F88818083809182008F5F05
:10026000809382009F5FC92FD0E0F80101900020A9
:10027000E9F73197E01BF10BCE17DF0728F35D9903
:100280001CB8DF91CF911F910F9108951F920F928B
:100290000FB60F9211242F933F934F935F936F9359
:1002A0007F938F939F93AF93BF93EF93FF93E091CF
:1002B0008500F0918600309709F00995FF91EF9144
:1002C000BF91AF919F918F917F916F915F914F916E
:1002D0003F912F910F900FBE0F901F90189523B74D
:1002E000287FFC018281282B23BF89B7826089BFC8
:1002F00062BF4CBF089583B7887F83BF08959093F2
:1003000086008093850008950F931F938C018BE0E6
:1003100061E00E94810243B7F801808190E09C0176
:100320002170307056E0220F331F5A95E1F782702A
:100330009070880F991F880F991F282B477B242BBB
:1003400023BF93B781818295807F9F7C892B83BF58
:1003500083B7887F9281892B83BF1F910F91089566
:100360001F920F920FB60F9211242F933F934F932A
:100370005F936F937F938F939F93AF93BF93EF930D
:10038000FF93E0918700F0918800309709F009957C
:10039000FF91EF91BF91AF919F918F917F916F915D
:1003A0005F914F913F912F910F900FBE0F901F9033
:1003B00018958FB9779BFECF0895779BFECF8FB1AD
:1003C000089520E004C0EFB9779BFECF2F5FFC01BA
:1003D000E20FF11DE081EE23B1F70895DC01779B78
:1003E000FECF8FB18C9390E008C09F5F779BFECFCC
:1003F0008FB1FD01E90FF11D8083FD01E90FF11DB2
:100400008081833291F710820895909388008093C1
:10041000870008950F931F938C018CE061E00E9488
:1004200081028DE061E00E9481028EE060E00E9426
:1004300081028FE061E00E9481026C9A8FB7806830
:100440008FBF6F9A6D98709A8DB18C7FF8019181F2
:10045000892B8DB99DB18081880F880F937F892B5F
:100460008DB96E9A1F910F91089582E080B911B8ED
:1004700086B7846086BF089584EA86BF06B607FE05
:10048000FDCF089584E986BF089583B984E886BFC7
:1004900006B607FEFDCF089584EC86BF06B607FEBC
:1004A000FDCF83B1089584E886BF06B607FEFDCF71
:1004B00083B10895982F84EA86BF06B607FEFDCF64
:1004C00081B1887F8830C1F493B984E886BF06B6CD
:1004D00007FEFDCF81B1887F883171F463B984E86C
:1004E00086BF06B607FEFDCF81B1887F883221F432
:1004F00084E986BF80E0089581E0089581B1887F16
:100500000895482F47708695869586958130B1F17C
:10051000813038F0823009F45EC0833009F0B2C017
:1005200086C0662361F42AB381E090E002C0880FA0
:10053000991F4A95E2F7809582238ABB089561301E
:1005400059F42AB381E090E002C0880F991F4A95C0
:10055000E2F7282B2ABB0895623009F093C03AB322
:1005600081E090E001C0880F4A95EAF7282F209596
:1005700023232ABB2BB3822B8BBB0895662361F404
:1005800027B381E090E002C0880F991F4A95E2F7F7
:100590008095822387BB0895613059F427B381E0A9
:1005A00090E002C0880F991F4A95E2F7282B27BBDD
:1005B0000895623009F066C037B381E090E001C071
:1005C000880F4A95EAF7282F2095232327BB28B3C5
:1005D000822B88BB0895662361F424B381E090E008
:1005E00002C0880F991F4A95E2F78095822384BB49
:1005F0000895613059F424B381E090E002C0880F7F
:10060000991F4A95E2F7282B24BB08956230D1F553
:1006100034B381E090E001C0880F4A95EAF7282FB3
:100620002095232324BB25B3822B85BB0895662305
:1006300061F421B381E090E002C0880F991F4A95D0
:10064000E2F78095822381BB0895613059F421B38C
:1006500081E090E002C0880F991F4A95E2F7282BAD
:1006600021BB0895623071F431B381E090E001C0A4
:10067000880F4A95EAF7282F2095232321BB22B320
:10068000822B82BB0895382F377086958695869584
:10069000813029F1813038F0823009F43CC0833058
:1006A00009F06EC053C0662361F42BB381E090E083
:1006B00002C0880F991F3A95E2F7809582238BBB81
:1006C0000895613009F05CC02BB381E090E002C076
:1006D000880F991F3A95E2F7282B2BBB08956623C4
:1006E00061F428B381E090E002C0880F991F3A9529
:1006F000E2F78095822388BB0895613009F040C0FD
:1007000028B381E090E002C0880F991F3A95E2F784
:10071000282B28BB0895662361F425B381E090E07F
:1007200002C0880F991F3A95E2F78095822385BB16
:100730000895613029F525B381E090E002C0880F6B
:10074000991F3A95E2F7282B25BB0895662361F49B
:1007500022B381E090E002C0880F991F3A95E2F73A
:100760008095822382BB0895613051F422B381E0E9
:1007700090E002C0880F991F3A95E2F7282B22BB20
:100780000895382F3770869586958695813051F07B
:10079000813030F0823041F0833041F020E015C0EC
:1007A00029B305C026B303C023B301C020B381E041
:1007B00090E0032E02C0880F991F0A94E2F702C04E
:1007C000959587953A95E2F72823822F08958130F1
:1007D00049F0813028F0823039F0833041F406C08E
:1007E0006ABB089567BB089564BB089561BB089513
:1007F000813049F0813028F0823039F0833041F483
:1008000006C06BBB089568BB089565BB089562BBC5
:100810000895FC0117B897B180818295880F880FE1
:10082000807C9F73892B87B986B1887F9181892BC2
:1008300086B990B782818295880F807E9F71892BBF
:1008400080BF379A089597B1907E97B997B1877016
:10085000892B87B9369A349BFECF349A24B135B1AF
:10086000C9010895FF920F931F93F82E88E161E06C
:100870000E94430389E160E00E9443030AEF10E015
:10088000C8010197F1F78AE161E00E944303C801C2
:100890000197F1F785B39F2D907F8F70982B95BBB3
:1008A000C8010197F1F78AE160E00E944303C801A3
:1008B0000197F1F78AE161E00E944303C8010197C3
:1008C000F1F785B3F29490EFF9228F708F2985BBF1
:1008D000C8010197F1F78AE160E00E944303C80173
:1008E0000197F1F71F910F91FF9008951F93CF93F8
:1008F000DF93EC0110E003C00E9432041F5FFE0191
:10090000E10FF11D80818823B9F7DF91CF911F910D
:1009100008950F931F93DF93CF93CDB7DEB7609702
:100920000FB6F894DEBF0FBECDBF8E010F5F1F4F15
:10093000B8014AE050E00E94C406C8010E94760453
:1009400060960FB6F894DEBF0FBECDBFCF91DF919A
:100950001F910F910895FF920F931F93F82E88E136
:1009600060E00E94430389E160E00E9443030AEFD4
:1009700010E0C8010197F1F78AE161E00E944303AA
:10098000C8010197F1F785B39F2D907F8F70982B49
:1009900095BBC8010197F1F78AE160E00E9443032B
:1009A000C8010197F1F78AE161E00E944303C801A1
:1009B0000197F1F785B3F29420EFF2228F708F291F
:1009C00085BBC8010197F1F78AE160E00E9443030B
:1009D000C8010197F1F71F910F91FF9008958130A1
:1009E00041F0813058F0823031F0833031F060E0F6
:1009F00005C0605C03C06C5E01C06C5A862F8068C5
:100A00000E94AB0408950F931F938A010E94EF0484
:100A1000C8010E9476041F910F91089581E00E9401
:100A2000AB04089588E161E00E9481028AE161E0FF
:100A30000E94810289E161E00E94810282E00E94BD
:100A4000AB0484B3806F84BB88E20E94AB048CE06B
:100A50000E94AB0481E00E94AB04089550E040E0A6
:100A600060E170E001C0542FCB01052E02C0880F59
:100A7000991F0A94E2F78ABB80958BBB20E030E097
:100A800089B390E0022E02C0959587950A94E2F70B
:100A900080FD49C0842F8F5F220F331F220F331F29
:100AA000820F883081F1893080F4843021F18530E3
:100AB00038F48230D1F08330E0F4813099F517C0FA
:100AC0008630E9F08730E8F418C08C3021F18D30A1
:100AD00028F48A30E1F08B30E0F417C08F30F9F061
:100AE0008031F9F08E30F1F418C088E0089587E085
:100AF000089589E0089585E2089584E0089585E0E9
:100B0000089586E008958AE2089581E0089582E0DC
:100B1000089583E008958DE2089580E008958DE3BF
:100B200008958BE208952F5F3F4F2430310509F07F
:100B3000A7CF452F4F5F443008F495CF50E040E0F9
:100B400093CFCF93DF9384ED90E30197F1F70E9469
:100B50003502C0EDD7E082E065E00E945A02CE0186
:100B60000197F1F782E066E00E945A02CE010197F8
:100B7000F1F7F1CFDF93CF9300D00F92CDB7DEB76F
:100B8000DE011196E4E7F0E083E001900D928150E0
:100B9000E1F7CE0101960E94AA0080E690E00E9453
:100BA000170187E690E00E941701FFCFDF93CF93F4
:100BB00000D0CDB7DEB7198283E08A83CE010196DB
:100BC0000E940A0285E00E94D901FFCFDF93CF93F4
:100BD00000D00F92CDB7DEB788E061E00E948102BD
:100BE000DE011196E7E7F0E083E001900D9281507D
:100BF000E1F7CE0101960E94090480E00E942304DF
:100C00008150924018F088E060E002C088E061E026
:100C10000E944303F2CF809189008F5F8093890007
:100C2000843021F480E061E00E94430380918900D8
:100C3000883031F480E060E00E9443031092890024
:100C400008950F931F93DF93CF9300D00F92CDB7EA
:100C5000DEB780E061E00E94810280E060E00E94F7
:100C60004303DE011196EAE7F0E083E001900D9284
:100C70008150E1F78BE096E00E947F018E010F5FCB
:100C80001F4FC8010E948401C80160E040E40E9437
:100C90006F01FFCFCF93DF9380E061E00E9481027C
:100CA00080E060E00E944303C9E1D0E080E061E0C1
:100CB0000E94430388E893E1FE013197F1F7019721
:100CC000D9F780E060E00E94430388E893E1FE01E9
:100CD0003197F1F70197D9F7E9CF0E94120580E02B
:100CE00060E04EE650E00E940305FFCF0E9412052F
:100CF00089E40E9432040E942E05813019F085306B
:100D0000D1F706C080E060E00E94EF0481E6F1CFF9
:100D100080E060E00E94EF0488E4EBCFCF93DF93A4
:100D200088E060E00E94810280E061E00E94810230
:100D300080E060E00E944303C4EFD1E00DC0CE012B
:100D40000197F1F704C080E061E00E94430388E06E
:100D50000E94C1038130B9F388E00E94C103813051
:100D600071F380E060E00E944303F6CF0E94A1058A
:100D700080E090E00895FB01DC018D9101908019E5
:100D80000110D9F3990B0895FB019F01E8944230BB
:100D9000C4F04532B4F44A3029F497FB1EF4909520
:100DA00081959F4F642F77270E94F506805D8A33D7
:100DB0000CF0895D8193CB010097A1F716F45DE2F9
:100DC00051931082C9010C94E506DC01FC01672FE8
:100DD00071917723E1F7329704C07C916D93708312
:100DE0006291AE17BF07C8F30895AA1BBB1B51E160
:100DF00007C0AA1FBB1FA617B70710F0A61BB70B8B
:100E0000881F991F5A95A9F780959095BC01CD012F
:060E10000895F894FFCFE5
:100E160041484D45442300426173656C23004148B7
:0E0E26004D45440000000300030003020200DB
:00000001FF
