:100000000C942A000C9447000C9447000C94470071
:100010000C9447000C9447000C9447000C94470044
:100020000C9447000C9447000C9447000C94470034
:100030000C9447000C9447000C9447000C94470024
:100040000C9447000C9447000C9447000C94A900B2
:100050000C94470011241FBECFE5D4E0DEBFCDBF16
:1000600010E0A0E6B0E0ECEDFAE002C005900D92E1
:10007000A837B107D9F710E0A8E7B0E001C01D929A
:10008000AB37B107E1F70E9422050C946C050C9484
:100090000000FC015C985B98599A549A539A80B579
:1000A000806880BD80B58F7B80BD90B58081829552
:1000B000807F9F7C892B80BD90B58181880F880FC0
:1000C000880F977F892B80BD40B5228130E0C90120
:1000D00083709070880F991F497F482B40BD8AB16B
:1000E00024703070220F331F220F331F8B7F822B1F
:1000F0008AB98CE089B910BC08955D9BFECF8CB99C
:1001000008955F9BFECF8CB1089520E004C05D9BF5
:10011000FECFECB92F5FFC01E20FF11DE081EE2371
:10012000B1F70895DC015F9BFECF8CB18C9390E01A
:1001300008C09F5F5F9BFECF8CB1FD01E90FF11DF1
:100140008083FD01E90FF11D8081833291F71082D8
:1001500008951F920F920FB60F9211242F933F9381
:100160004F935F936F937F938F939F93AF93BF93BF
:10017000EF93FF93E0917800F0917900309709F0C8
:100180000995FF91EF91BF91AF919F918F917F91D1
:100190006F915F914F913F912F910F900FBE0F90F4
:1001A0001F90189523B7287FFC018281282B23BF3D
:1001B00089B7826089BF62BF4CBF089583B7887FCB
:1001C00083BF0895909379008093780008950F93EA
:1001D0001F938C018BE061E00E94130143B7F8018B
:1001E000808190E09C012170307056E0220F331F17
:1001F0005A95E1F782709070880F991F880F991FA8
:10020000282B477B242B23BF93B781818295807F46
:100210009F7C892B83BF83B7887F9281892B83BF83
:100220001F910F910895482F477086958695869562
:100230008130B1F1813038F0823009F45EC0833012
:1002400009F0B2C086C0662361F42AB381E090E071
:1002500002C0880F991F4A95E2F7809582238ABBD6
:100260000895613059F42AB381E090E002C0880F0C
:10027000991F4A95E2F7282B2ABB0895623009F0AE
:1002800093C03AB381E090E001C0880F4A95EAF745
:10029000282F209523232ABB2BB3822B8BBB0895B9
:1002A000662361F427B381E090E002C0880F991FB4
:1002B0004A95E2F78095822387BB0895613059F40F
:1002C00027B381E090E002C0880F991F4A95E2F7BA
:1002D000282B27BB0895623009F066C037B381E050
:1002E00090E001C0880F4A95EAF7282F2095232334
:1002F00027BB28B3822B88BB0895662361F424B3FF
:1003000081E090E002C0880F991F4A95E2F780953E
:10031000822384BB0895613059F424B381E090E0D6
:1003200002C0880F991F4A95E2F7282B24BB089535
:100330006230D1F534B381E090E001C0880F4A9576
:10034000EAF7282F2095232324BB25B3822B85BBD6
:100350000895662361F421B381E090E002C0880F24
:10036000991F4A95E2F78095822381BB08956130F9
:1003700059F421B381E090E002C0880F991F4A959B
:10038000E2F7282B21BB0895623071F431B381E08C
:1003900090E001C0880F4A95EAF7282F2095232383
:1003A00021BB22B3822B82BB0895382F37708695EC
:1003B00086958695813029F1813038F0823009F4B4
:1003C0003CC0833009F06EC053C0662361F42BB388
:1003D00081E090E002C0880F991F3A95E2F780957E
:1003E00082238BBB0895613009F05CC02BB381E0A0
:1003F00090E002C0880F991F3A95E2F7282B2BBB9B
:100400000895662361F428B381E090E002C0880F6C
:10041000991F3A95E2F78095822388BB0895613051
:1004200009F040C028B381E090E002C0880F991F16
:100430003A95E2F7282B28BB0895662361F425B38B
:1004400081E090E002C0880F991F3A95E2F780950D
:10045000822385BB0895613029F525B381E090E0C2
:1004600002C0880F991F3A95E2F7282B25BB089503
:10047000662361F422B381E090E002C0880F991FE7
:100480003A95E2F78095822382BB0895613051F45A
:1004900022B381E090E002C0880F991F3A95E2F7FD
:1004A000282B22BB0895382F377086958695869520
:1004B000813051F0813030F0823041F0833041F0B2
:1004C00020E015C029B305C026B303C023B301C083
:1004D00020B381E090E0032E02C0880F991F0A9498
:1004E000E2F702C0959587953A95E2F72823822F87
:1004F0000895813049F0813028F0823039F083301E
:1005000041F406C06ABB089567BB089564BB0895B3
:1005100061BB0895813049F0813028F0823039F094
:10052000833041F406C06BBB089568BB089565BB7A
:10053000089562BB0895FC0117B897B18081829538
:10054000880F880F807C9F73892B87B986B1887F3D
:100550009181892B86B990B782818295880F807EA0
:100560009F71892B80BF379A089597B1907E97B974
:1005700097B18770892B87B9369A349BFECF349A0E
:1005800024B135B1C9010895FF920F931F93F82E3E
:1005900088E161E00E94D50189E160E00E94D50117
:1005A0000AEF10E0C8010197F1F78AE161E00E94CB
:1005B000D501C8010197F1F785B39F2D907F8F700A
:1005C000982B95BBC8010197F1F78AE160E00E9482
:1005D000D501C8010197F1F78AE161E00E94D501D8
:1005E000C8010197F1F785B3F29490EFF9228F706B
:1005F0008F2985BBC8010197F1F78AE160E00E946D
:10060000D501C8010197F1F71F910F91FF9008954F
:100610001F93CF93DF93EC0110E003C00E94C4024C
:100620001F5FFE01E10FF11D80818823B9F7DF9183
:10063000CF911F9108950F931F93DF93CF93CDB761
:10064000DEB760970FB6F894DEBF0FBECDBF8E0148
:100650000F5F1F4FB8014AE050E00E942705C80114
:100660000E94080360960FB6F894DEBF0FBECDBFA0
:10067000CF91DF911F910F910895FF920F931F93D8
:10068000F82E88E160E00E94D50189E160E00E94D7
:10069000D5010AEF10E0C8010197F1F78AE161E0A6
:1006A0000E94D501C8010197F1F785B39F2D907F76
:1006B0008F70982B95BBC8010197F1F78AE160E034
:1006C0000E94D501C8010197F1F78AE161E00E941B
:1006D000D501C8010197F1F785B3F29420EFF2221A
:1006E0008F708F2985BBC8010197F1F78AE160E01F
:1006F0000E94D501C8010197F1F71F910F91FF905A
:100700000895813041F0813058F0823031F08330EB
:1007100031F060E005C0605C03C06C5E01C06C5AE3
:10072000862F80680E943D0308950F931F938A01CE
:100730000E948103C8010E9408031F910F91089530
:1007400081E00E943D03089588E161E00E94130169
:100750008AE161E00E94130189E161E00E941301D6
:1007600082E00E943D0384B3806F84BB88E20E94D4
:100770003D038CE00E943D0381E00E943D0308950B
:1007800050E040E060E170E001C0542FCB01052E45
:1007900002C0880F991F0A94E2F78ABB80958BBB31
:1007A00020E030E089B390E0022E02C09595879555
:1007B0000A94E2F780FD49C0842F8F5F220F331F18
:1007C000220F331F820F883081F1893080F484300A
:1007D00021F1853038F48230D1F08330E0F481307B
:1007E00099F517C08630E9F08730E8F418C08C30EE
:1007F00021F18D3028F48A30E1F08B30E0F417C01D
:100800008F30F9F08031F9F08E30F1F418C088E0C3
:10081000089587E0089589E0089585E2089584E0C9
:10082000089585E0089586E008958AE2089581E0BC
:10083000089582E0089583E008958DE2089580E0B0
:1008400008958DE308958BE208952F5F3F4F243084
:10085000310509F0A7CF452F4F5F443008F495CFFD
:1008600050E040E093CF0F931F93DF93CF9300D0DE
:100870000F92CDB7DEB7DE011196EEE6F0E083E031
:1008800001900D928150E1F7CE0101960E9449003E
:1008900004ED10E380E690E00E948500C801019716
:1008A000F1F7F8CFDF93CF9300D00F92CDB7DEB73B
:1008B00088E061E00E941301DE011196E1E7F0E0BB
:1008C00083E001900D928150E1F7CE0101960E94E4
:1008D0009B0280E00E94B5028150924018F088E0AF
:1008E00060E002C088E061E00E94D501F2CF809113
:1008F0007A008F5F80937A00843021F480E061E099
:100900000E94D50180917A00883031F480E060E067
:100910000E94D50110927A0008950F931F93DF93E0
:10092000CF9300D00F92CDB7DEB780E061E00E9498
:10093000130180E060E00E94D501DE011196E4E73A
:10094000F0E083E001900D928150E1F787E794E0B9
:100950000E94E2008E010F5F1F4FC8010E94E70056
:10096000C80160E040E40E94D200FFCFCF93DF9344
:1009700080E061E00E94130180E060E00E94D50108
:10098000C9E1D0E080E061E00E94D50188E893E110
:10099000FE013197F1F70197D9F780E060E00E94FE
:1009A000D50188E893E1FE013197F1F70197D9F776
:1009B000E9CF0E94A40380E060E048E650E00E9496
:1009C0009503FFCF0E94A40389E40E94C4020E9401
:1009D000C003813019F08530D1F706C080E060E0B7
:1009E0000E94810381E6F1CF80E060E00E948103F4
:1009F00088E4EBCFCF93DF9388E060E00E9413019F
:100A000080E061E00E94130180E060E00E94D50177
:100A1000C4EFD1E00DC0CE010197F1F704C080E032
:100A200061E00E94D50188E00E9453028130B9F351
:100A300088E00E945302813071F380E060E00E9400
:100A4000D501F6CF0E94330480E090E00895FB01C9
:100A50009F01E8944230C4F04532B4F44A3029F49E
:100A600097FB1EF4909581959F4F642F77270E94E6
:100A70005805805D8A330CF0895D8193CB01009726
:100A8000A1F716F45DE251931082C9010C94480558
:100A9000DC01FC01672F71917723E1F7329704C0E5
:100AA0007C916D9370836291AE17BF07C8F3089570
:100AB000AA1BBB1B51E107C0AA1FBB1FA617B70784
:100AC00010F0A61BB70B881F991F5A95A9F78095A0
:0C0AD0009095BC01CD010895F894FFCF73
:100ADC0042617373656C230041484D45440000002E
:080AEC000300030003020200F5
:00000001FF
