:100000000C942A000C9447000C9447000C94470071
:100010000C9447000C9447000C9447000C94470044
:100020000C9447000C9447000C9447000C94470034
:100030000C9447000C9447000C9447000C94470024
:100040000C9447000C9447000C9447000C94490012
:100050000C94470011241FBECFE5D4E0DEBFCDBF16
:1000600010E0A0E6B0E0ECE4F8E002C005900D92EC
:10007000AC36B107D9F710E0ACE6B0E001C01D9294
:10008000AF36B107E1F70E94DA030C9424040C9414
:1000900000001F920F920FB60F9211242F933F93DF
:1000A0004F935F936F937F938F939F93AF93BF9380
:1000B000EF93FF93E0916C00F0916D00309709F0A1
:1000C0000995FF91EF91BF91AF919F918F917F9192
:1000D0006F915F914F913F912F910F900FBE0F90B5
:1000E0001F90189523B7287FFC018281282B23BFFE
:1000F00089B7826089BF62BF4CBF089583B7887F8C
:1001000083BF089590936D0080936C0008950F93C2
:100110001F938C018BE061E00E94B30043B7F801AC
:10012000808190E09C012170307056E0220F331FD7
:100130005A95E1F782709070880F991F880F991F68
:10014000282B477B242B23BF93B781818295807F07
:100150009F7C892B83BF83B7887F9281892B83BF44
:100160001F910F910895482F477086958695869523
:100170008130B1F1813038F0823009F45EC08330D3
:1001800009F0B2C086C0662361F42AB381E090E032
:1001900002C0880F991F4A95E2F7809582238ABB97
:1001A0000895613059F42AB381E090E002C0880FCD
:1001B000991F4A95E2F7282B2ABB0895623009F06F
:1001C00093C03AB381E090E001C0880F4A95EAF706
:1001D000282F209523232ABB2BB3822B8BBB08957A
:1001E000662361F427B381E090E002C0880F991F75
:1001F0004A95E2F78095822387BB0895613059F4D0
:1002000027B381E090E002C0880F991F4A95E2F77A
:10021000282B27BB0895623009F066C037B381E010
:1002200090E001C0880F4A95EAF7282F20952323F4
:1002300027BB28B3822B88BB0895662361F424B3BF
:1002400081E090E002C0880F991F4A95E2F78095FF
:10025000822384BB0895613059F424B381E090E097
:1002600002C0880F991F4A95E2F7282B24BB0895F6
:100270006230D1F534B381E090E001C0880F4A9537
:10028000EAF7282F2095232324BB25B3822B85BB97
:100290000895662361F422B381E090E002C0880FE4
:1002A000991F4A95E2F78095822382BB08956130B9
:1002B00059F422B381E090E002C0880F991F4A955B
:1002C000E2F7282B22BB0895623071F432B381E04B
:1002D00090E001C0880F4A95EAF7282F2095232344
:1002E00022BB21B3822B81BB0895382F37708695AE
:1002F00086958695813029F1813038F0823009F475
:100300003CC0833009F06EC053C0662361F42BB348
:1003100081E090E002C0880F991F3A95E2F780953E
:1003200082238BBB0895613009F05CC02BB381E060
:1003300090E002C0880F991F3A95E2F7282B2BBB5B
:100340000895662361F428B381E090E002C0880F2D
:10035000991F3A95E2F78095822388BB0895613012
:1003600009F040C028B381E090E002C0880F991FD7
:100370003A95E2F7282B28BB0895662361F425B34C
:1003800081E090E002C0880F991F3A95E2F78095CE
:10039000822385BB0895613029F525B381E090E083
:1003A00002C0880F991F3A95E2F7282B25BB0895C4
:1003B000662361F421B381E090E002C0880F991FA9
:1003C0003A95E2F78095822381BB0895613051F41C
:1003D00021B381E090E002C0880F991F3A95E2F7BF
:1003E000282B21BB0895382F3770869586958695E2
:1003F000813051F0813030F0823041F0833041F073
:1004000020E015C029B305C026B303C023B301C043
:1004100020B381E090E0032E02C0880F991F0A9458
:10042000E2F702C0959587953A95E2F72823822F47
:100430000895813049F0813028F0823039F08330DE
:1004400041F406C06ABB089567BB089564BB089574
:1004500062BB0895813049F0813028F0823039F054
:10046000833041F406C06BBB089568BB089565BB3B
:10047000089561BB0895FC0117B897B180818295FA
:10048000880F880F807C9F73892B87B986B1887FFE
:100490009181892B86B990B782818295880F807E61
:1004A0009F71892B80BF379A089597B1907E97B935
:1004B00097B18770892B87B9369A349BFECF349ACF
:1004C00024B135B1C9010895FF920F931F93F82EFF
:1004D00088E061E00E94750189E060E00E9475019A
:1004E0000AEF10E0C8010197F1F78AE061E00E948D
:1004F0007501C8010197F1F7F5BAC8010197F1F745
:100500008AE060E00E947501C8010197F1F71F9130
:100510000F91FF9008951F93CF93DF93EC0110E0AC
:1005200003C00E9464021F5FFE01E10FF11D808184
:100530008823B9F7DF91CF911F9108950F931F93EF
:10054000DF93CF93CDB7DEB760970FB6F894DEBFD9
:100550000FBECDBF8E010F5F1F4FB8014AE050E0C4
:100560000E94DF03C8010E948B0260960FB6F894C8
:10057000DEBF0FBECDBFCF91DF911F910F910895C8
:10058000FF920F931F93F82E88E060E00E947501A0
:1005900089E060E00E9475010AEF10E0C801019750
:1005A000F1F78AE061E00E947501C8010197F1F757
:1005B000F5BAC8010197F1F78AE060E00E94750181
:1005C000C8010197F1F71F910F91FF9008958130B5
:1005D00041F0813058F0823031F0833031F060E00A
:1005E00005C0605C03C06C5E01C06C5A862F8068D9
:1005F0000E94C00208950F931F938A010E94E70290
:10060000C8010E948B021F910F91089581E00E9402
:10061000C00208958FEF84BB88E061E00E94B300C0
:100620008AE061E00E94B30089E061E00E94B300CB
:1006300088E30E94C0028CE00E94C00281E00E9418
:10064000C0020895DF93CF9300D00F92CDB7DEB7ED
:1006500088E061E00E94B300DE011196E6E6F0E07A
:1006600083E001900D928150E1F7CE0101960E9446
:100670003B0280E00E9455028150924018F088E0D1
:1006800060E002C088E061E00E947501F2CF8091D5
:100690006E008F5F80936E00843021F480E061E013
:1006A0000E94750180916E00883031F480E060E036
:1006B0000E94750110926E0008950F931F93DF93AF
:1006C000CF9300D00F92CDB7DEB780E061E00E94FB
:1006D000B30080E060E00E947501DE011196E9E65A
:1006E000F0E083E001900D928150E1F787E493E020
:1006F0000E9482008E010F5F1F4FC8010E94870079
:10070000C80160E040E40E947200FFCFCF93DF9306
:1007100080E061E00E94B30080E060E00E9475012B
:10072000C9E1D0E080E061E00E94750188E893E1D2
:10073000FE013197F1F70197D9F780E060E00E9460
:10074000750188E893E1FE013197F1F70197D9F738
:10075000E9CF0E940A0381E060E040E650E00E9499
:10076000FB02FFCFCF93DF9388E060E00E94B300ED
:1007700080E061E00E94B30080E060E00E947501CB
:10078000C4EFD1E00DC0CE010197F1F704C080E0C5
:1007900061E00E94750188E00E94F3018130B9F3A5
:1007A00088E00E94F301813071F380E060E00E94F4
:1007B0007501F6CF0E94A90380E090E00895FB0147
:1007C0009F01E8944230C4F04532B4F44A3029F431
:1007D00097FB1EF4909581959F4F642F77270E9479
:1007E0001004805D8A330CF0895D8193CB01009702
:1007F000A1F716F45DE251931082C9010C94000434
:10080000DC01FC01672F71917723E1F7329704C077
:100810007C916D9370836291AE17BF07C8F3089502
:10082000AA1BBB1B51E107C0AA1FBB1FA617B70716
:1008300010F0A61BB70B881F991F5A95A9F7809532
:0C0840009095BC01CD010895F894FFCF05
:0C084C0041484D45440000030003020237
:00000001FF
