:100000000C942A000C9447000C9447000C94470071
:100010000C9447000C9447000C9447000C94470044
:100020000C9447000C9449000C9447000C94470032
:100030000C9447000C9447000C9447000C94470024
:100040000C9447000C9447000C9447000C94470014
:100050000C94470011241FBECFE5D4E0DEBFCDBF16
:1000600010E0A0E6B0E0E0E9F5E002C005900D92F6
:10007000A436B107D9F710E0A4E6B0E001C01D92A4
:10008000A736B107E1F70E94C1020C94C6020C9496
:1000900000001F920F920FB60F9211242F933F93DF
:1000A0004F935F936F937F938F939F93AF93BF9380
:1000B000EF93FF93E0916400F0916500309709F0B1
:1000C0000995FF91EF91BF91AF919F918F917F9192
:1000D0006F915F914F913F912F910F900FBE0F90B5
:1000E0001F901895FC018FB780688FBF83B7806819
:1000F00083BF43B7808190E09C012170307056E04F
:10010000220F331F5A95E1F782709070880F991F64
:10011000880F991F282B477B242B23BF93B78181FE
:100120008295807F9F7C892B83BF83B7887F928154
:10013000892B83BF089523B7287FFC018281282B58
:1001400023BF89B7816089BF62BF089583B7887F65
:1001500083BF089590936500809364000895482FAD
:1001600047708695869586958130B1F1813038F05B
:10017000823009F45EC0833009F0B2C086C06623C5
:1001800061F42AB381E090E002C0880F991F4A957C
:10019000E2F7809582238ABB0895613059F42AB32F
:1001A00081E090E002C0880F991F4A95E2F7282B62
:1001B0002ABB0895623009F093C03AB381E090E021
:1001C00001C0880F4A95EAF7282F209523232ABBE0
:1001D0002BB3822B8BBB0895662361F427B381E098
:1001E00090E002C0880F991F4A95E2F7809582231C
:1001F00087BB0895613059F427B381E090E002C0D5
:10020000880F991F4A95E2F7282B27BB0895623083
:1002100009F066C037B381E090E001C0880F4A95CD
:10022000EAF7282F2095232327BB28B3822B88BBEE
:100230000895662361F424B381E090E002C0880F42
:10024000991F4A95E2F78095822384BB0895613017
:1002500059F424B381E090E002C0880F991F4A95B9
:10026000E2F7282B24BB08956230D1F534B381E046
:1002700090E001C0880F4A95EAF7282F20952323A4
:1002800024BB25B3822B85BB0895662361F422B37A
:1002900081E090E002C0880F991F4A95E2F78095AF
:1002A000822382BB0895613059F422B381E090E04B
:1002B00002C0880F991F4A95E2F7282B22BB0895A8
:1002C000623071F432B381E090E001C0880F4A954A
:1002D000EAF7282F2095232322BB21B3822B81BB51
:1002E0000895382F3770869586958695813029F147
:1002F000813038F0823009F43CC0833009F06EC0A0
:1003000053C0662361F42BB381E090E002C0880FF4
:10031000991F3A95E2F7809582238BBB089561304F
:1003200009F05CC02BB381E090E002C0880F991FF8
:100330003A95E2F7282B2BBB0895662361F428B386
:1003400081E090E002C0880F991F3A95E2F780950E
:10035000822388BB0895613009F040C028B381E052
:1003600090E002C0880F991F3A95E2F7282B28BB2E
:100370000895662361F425B381E090E002C0880F00
:10038000991F3A95E2F78095822385BB08956130E5
:1003900029F525B381E090E002C0880F991F3A95B6
:1003A000E2F7282B25BB0895662361F421B381E091
:1003B00090E002C0880F991F3A95E2F7809582235A
:1003C00081BB0895613051F421B381E090E002C017
:1003D000880F991F3A95E2F7282B21BB0895382FF3
:1003E0003770869586958695813051F0813030F052
:1003F000823041F0833041F020E015C029B305C0C0
:1004000026B303C023B301C020B381E090E0032EE4
:1004100002C0880F991F0A94E2F702C0959587954C
:100420003A95E2F72823822F0895813049F08130F0
:1004300028F0823039F0833041F406C06ABB089559
:1004400067BB089564BB089562BB0895813049F08D
:10045000813028F0823039F0833041F406C06BBB24
:10046000089568BB089565BB089561BB08958091A8
:1004700066008F5F80936600843021F480E061E045
:100480000E94710180916600883031F480E060E064
:100490000E9471011092660008950F931F93DF93DD
:1004A000CF9300D00F92CDB7DEB780E061E00E941D
:1004B000AF0080E060E00E947101DE011196E0E68D
:1004C000F0E083E001900D928150E1F787E392E044
:1004D0000E94AA008E010F5F1F4FC8010E94720088
:1004E000C80160E04FEF0E949B00FFCFCF93DF93E6
:1004F00080E061E00E94AF0080E060E00E94710156
:10050000C9E1D0E080E061E00E94710188E893E1F8
:10051000FE013197F1F70197D9F780E060E00E9482
:10052000710188E893E1FE013197F1F70197D9F75E
:10053000E9CFCF93DF9388E060E00E94AF0080E0D6
:1005400061E00E94AF0080E060E00E947101C4EFB2
:10055000D1E00DC0CE010197F1F704C080E061E069
:100560000E94710188E00E94EF018130B9F388E0B8
:100570000E94EF01813071F380E060E00E94710120
:10058000F6CF0E944D0280E090E00895F894FFCFEE
:040590000000050062
:00000001FF
